{
  "contractName": "CourseMarketplace",
  "abi": [
    {
      "inputs": [],
      "stateMutability": "nonpayable",
      "type": "constructor"
    },
    {
      "inputs": [],
      "name": "CourseHasOwner",
      "type": "error"
    },
    {
      "inputs": [],
      "name": "OnlyOwner",
      "type": "error"
    },
    {
      "inputs": [
        {
          "internalType": "bytes16",
          "name": "courseId",
          "type": "bytes16"
        },
        {
          "internalType": "bytes32",
          "name": "proof",
          "type": "bytes32"
        }
      ],
      "name": "purchaseCourse",
      "outputs": [
        {
          "internalType": "bytes32",
          "name": "",
          "type": "bytes32"
        }
      ],
      "stateMutability": "payable",
      "type": "function",
      "payable": true
    },
    {
      "inputs": [
        {
          "internalType": "address",
          "name": "newOwner",
          "type": "address"
        }
      ],
      "name": "transferOwnership",
      "outputs": [],
      "stateMutability": "nonpayable",
      "type": "function"
    },
    {
      "inputs": [],
      "name": "getCourseCount",
      "outputs": [
        {
          "internalType": "uint256",
          "name": "",
          "type": "uint256"
        }
      ],
      "stateMutability": "view",
      "type": "function",
      "constant": true
    },
    {
      "inputs": [
        {
          "internalType": "uint256",
          "name": "index",
          "type": "uint256"
        }
      ],
      "name": "getCourseHashAtIndex",
      "outputs": [
        {
          "internalType": "bytes32",
          "name": "",
          "type": "bytes32"
        }
      ],
      "stateMutability": "view",
      "type": "function",
      "constant": true
    },
    {
      "inputs": [
        {
          "internalType": "bytes32",
          "name": "courseHash",
          "type": "bytes32"
        }
      ],
      "name": "getCourseByHash",
      "outputs": [
        {
          "components": [
            {
              "internalType": "uint256",
              "name": "id",
              "type": "uint256"
            },
            {
              "internalType": "uint256",
              "name": "price",
              "type": "uint256"
            },
            {
              "internalType": "bytes32",
              "name": "proof",
              "type": "bytes32"
            },
            {
              "internalType": "address",
              "name": "owner",
              "type": "address"
            },
            {
              "internalType": "enum CourseMarketplace.State",
              "name": "state",
              "type": "uint8"
            }
          ],
          "internalType": "struct CourseMarketplace.Course",
          "name": "",
          "type": "tuple"
        }
      ],
      "stateMutability": "view",
      "type": "function",
      "constant": true
    },
    {
      "inputs": [],
      "name": "getContractOwner",
      "outputs": [
        {
          "internalType": "address",
          "name": "",
          "type": "address"
        }
      ],
      "stateMutability": "view",
      "type": "function",
      "constant": true
    }
  ],
  "bytecode": "0x608060405234801561001057600080fd5b506100203361002560201b60201c565b610069565b80600360006101000a81548173ffffffffffffffffffffffffffffffffffffffff021916908373ffffffffffffffffffffffffffffffffffffffff16021790555050565b610b54806100786000396000f3fe6080604052600436106100555760003560e01c8063442890d51461005a57806362e4e6ac146100855780636d11290b146100c257806396cfda06146100ff578063d76821cb1461012a578063f2fde38b1461015a575b600080fd5b34801561006657600080fd5b5061006f610183565b60405161007c91906108c9565b60405180910390f35b34801561009157600080fd5b506100ac60048036038101906100a7919061074c565b6101ad565b6040516100b991906108ff565b60405180910390f35b3480156100ce57600080fd5b506100e960048036038101906100e49190610775565b6102d4565b6040516100f691906108e4565b60405180910390f35b34801561010b57600080fd5b506101146102f1565b604051610121919061091a565b60405180910390f35b610144600480360381019061013f9190610710565b6102fb565b60405161015191906108e4565b60405180910390f35b34801561016657600080fd5b50610181600480360381019061017c91906106e7565b6104ea565b005b6000600360009054906101000a900473ffffffffffffffffffffffffffffffffffffffff16905090565b6101b5610613565b6000808381526020019081526020016000206040518060a00160405290816000820154815260200160018201548152602001600282015481526020016003820160009054906101000a900473ffffffffffffffffffffffffffffffffffffffff1673ffffffffffffffffffffffffffffffffffffffff1673ffffffffffffffffffffffffffffffffffffffff1681526020016003820160149054906101000a900460ff166002811115610291577f4e487b7100000000000000000000000000000000000000000000000000000000600052602160045260246000fd5b60028111156102c9577f4e487b7100000000000000000000000000000000000000000000000000000000600052602160045260246000fd5b815250509050919050565b600060016000838152602001908152602001600020549050919050565b6000600254905090565b600080833360405160200161031192919061089d565b60405160208183030381529060405280519060200120905061033281610562565b15610369576040517fb0fc2d9700000000000000000000000000000000000000000000000000000000815260040160405180910390fd5b60006002600081548092919061037e906109cc565b9190505590508160016000838152602001908152602001600020819055506040518060a001604052808281526020013481526020018581526020013373ffffffffffffffffffffffffffffffffffffffff1681526020016000600281111561040f577f4e487b7100000000000000000000000000000000000000000000000000000000600052602160045260246000fd5b81525060008084815260200190815260200160002060008201518160000155602082015181600101556040820151816002015560608201518160030160006101000a81548173ffffffffffffffffffffffffffffffffffffffff021916908373ffffffffffffffffffffffffffffffffffffffff16021790555060808201518160030160146101000a81548160ff021916908360028111156104da577f4e487b7100000000000000000000000000000000000000000000000000000000600052602160045260246000fd5b0217905550905050505092915050565b6104f2610183565b73ffffffffffffffffffffffffffffffffffffffff163373ffffffffffffffffffffffffffffffffffffffff1614610556576040517f5fc483c500000000000000000000000000000000000000000000000000000000815260040160405180910390fd5b61055f816105cf565b50565b60003373ffffffffffffffffffffffffffffffffffffffff1660008084815260200190815260200160002060030160009054906101000a900473ffffffffffffffffffffffffffffffffffffffff1673ffffffffffffffffffffffffffffffffffffffff16149050919050565b80600360006101000a81548173ffffffffffffffffffffffffffffffffffffffff021916908373ffffffffffffffffffffffffffffffffffffffff16021790555050565b6040518060a00160405280600081526020016000815260200160008019168152602001600073ffffffffffffffffffffffffffffffffffffffff1681526020016000600281111561068d577f4e487b7100000000000000000000000000000000000000000000000000000000600052602160045260246000fd5b81525090565b6000813590506106a281610ac2565b92915050565b6000813590506106b781610ad9565b92915050565b6000813590506106cc81610af0565b92915050565b6000813590506106e181610b07565b92915050565b6000602082840312156106f957600080fd5b600061070784828501610693565b91505092915050565b6000806040838503121561072357600080fd5b6000610731858286016106a8565b9250506020610742858286016106bd565b9150509250929050565b60006020828403121561075e57600080fd5b600061076c848285016106bd565b91505092915050565b60006020828403121561078757600080fd5b6000610795848285016106d2565b91505092915050565b6107a781610935565b82525050565b6107b681610935565b82525050565b6107cd6107c882610935565b610a15565b82525050565b6107e46107df82610947565b610a27565b82525050565b6107f381610973565b82525050565b61080281610973565b82525050565b610811816109ba565b82525050565b60a08201600082015161082d600085018261087f565b506020820151610840602085018261087f565b50604082015161085360408501826107ea565b506060820151610866606085018261079e565b5060808201516108796080850182610808565b50505050565b610888816109b0565b82525050565b610897816109b0565b82525050565b60006108a982856107d3565b6010820191506108b982846107bc565b6014820191508190509392505050565b60006020820190506108de60008301846107ad565b92915050565b60006020820190506108f960008301846107f9565b92915050565b600060a0820190506109146000830184610817565b92915050565b600060208201905061092f600083018461088e565b92915050565b600061094082610990565b9050919050565b60007fffffffffffffffffffffffffffffffff0000000000000000000000000000000082169050919050565b6000819050919050565b600081905061098b82610aae565b919050565b600073ffffffffffffffffffffffffffffffffffffffff82169050919050565b6000819050919050565b60006109c58261097d565b9050919050565b60006109d7826109b0565b91507fffffffffffffffffffffffffffffffffffffffffffffffffffffffffffffffff821415610a0a57610a09610a43565b5b600182019050919050565b6000610a2082610a31565b9050919050565b6000819050919050565b6000610a3c82610aa1565b9050919050565b7f4e487b7100000000000000000000000000000000000000000000000000000000600052601160045260246000fd5b7f4e487b7100000000000000000000000000000000000000000000000000000000600052602160045260246000fd5b60008160601b9050919050565b60038110610abf57610abe610a72565b5b50565b610acb81610935565b8114610ad657600080fd5b50565b610ae281610947565b8114610aed57600080fd5b50565b610af981610973565b8114610b0457600080fd5b50565b610b10816109b0565b8114610b1b57600080fd5b5056fea26469706673582212204969097921f7deaaf0fdef198c20e0ad3788ca440724c1b2106cc8d3ee8e5aa164736f6c63430008040033",
  "immutableReferences": {},
  "source": "// SPDX-License-Identifier: MIT\npragma solidity >=0.4.22 <0.9.0;\n\ncontract CourseMarketplace {\n  enum State {\n    Purchased,\n    Activated,\n    Deactivated\n  }\n\n  struct Course {\n    uint id; // 32\n    uint price; // 32\n    bytes32 proof; // 32\n    address owner; // 20\n    State state; // 1\n  }\n\n  // mapping of courseHash to Course data\n  mapping(bytes32 => Course) private ownedCourses;\n\n  // mapping of courseID to courseHash\n  mapping(uint => bytes32) private ownedCourseHash;\n\n  // number of all courses + id of the course\n  uint private totalOwnedCourses;\n\n  address payable private owner;\n\n  constructor() {\n    setContractOwner(msg.sender);\n  }\n\n  /// Course has already a Owner!\n  error CourseHasOwner();\n\n  /// Only owner has an access!\n  error OnlyOwner();\n\n  modifier onlyOwner() {\n    if (msg.sender != getContractOwner()) {\n      revert OnlyOwner();\n    }\n    _;\n  }\n\n  function purchaseCourse(\n    bytes16 courseId, // 0x00000000000000000000000000003130\n    bytes32 proof // 0x0000000000000000000000000000313000000000000000000000000000003130\n  )\n    external\n    payable\n    returns(bytes32)\n  {\n    // course id - 10\n    // 0x00000000000000000000000000003130 // - value of the 10 in hexdecimal format (ASCII to HEX) (16 bytes)\n    // 0x5B38Da6a701c568545dCfcB03FcB875f56beddC4\n    // 000000000000000000000000000031305B38Da6a701c568545dCfcB03FcB875f56beddC4\n    // keccak256 - c4eaa3558504e2baa2669001b43f359b8418b44a4477ff417b4b007d7cc86e37\n              // - c4eaa3558504e2baa2669001b43f359b8418b44a4477ff417b4b007d7cc86e37\n    bytes32 courseHash = keccak256(abi.encodePacked(courseId, msg.sender)); // u need to use encodePacked if you want to hash multiple values\n\n    if (hasCourseOwnership(courseHash)) {\n      revert CourseHasOwner();\n    }\n\n    uint id = totalOwnedCourses++;\n\n    ownedCourseHash[id] = courseHash;\n    ownedCourses[courseHash] = Course({\n      id: id,\n      proof: proof,\n      price: msg.value,\n      owner: msg.sender,\n      state: State.Purchased\n    });\n  }\n\n  function transferOwnership(address newOwner)\n    external\n    onlyOwner\n  {\n    setContractOwner(newOwner);\n  }\n\n  function getCourseCount()\n    external\n    view\n    returns (uint)\n  {\n    return totalOwnedCourses;\n  }\n\n  function getCourseHashAtIndex(uint index)\n    external\n    view\n    returns (bytes32)\n  {\n    return ownedCourseHash[index];\n  }\n\n  function getCourseByHash(bytes32 courseHash)\n    external\n    view\n    returns (Course memory)\n  {\n    return ownedCourses[courseHash];\n  }\n\n  function getContractOwner()\n    public\n    view\n    returns (address)\n  {\n    return owner;\n  }\n\n  function setContractOwner(address newOwner) private {\n    owner = payable(newOwner);\n  }\n\n  function hasCourseOwnership(bytes32 courseHash)\n    private\n    view\n    returns (bool)\n  {\n    return ownedCourses[courseHash].owner == msg.sender;\n  }\n}\n",
  "sourcePath": "/Users/andrew_sokolenko/Desktop/i/projects/blockchain/marketplace-eth/contracts/CourseMarketplace.sol",
  "compiler": {
    "name": "solc",
    "version": "0.8.4+commit.c7e474f2.Emscripten.clang"
  },
  "schemaVersion": "3.4.4",
  "updatedAt": "2022-10-14T15:42:42.641Z",
  "networkType": "ethereum",
  "devdoc": {
    "kind": "dev",
    "methods": {},
    "version": 1
  },
  "userdoc": {
    "errors": {
      "CourseHasOwner()": [
        {
          "notice": "Course has already a Owner!"
        }
      ],
      "OnlyOwner()": [
        {
          "notice": "Only owner has an access!"
        }
      ]
    },
    "kind": "user",
    "methods": {},
    "version": 1
  }
}